{
  "contractName": "ExerciseC6D",
  "abi": [
    {
      "constant": true,
      "inputs": [],
      "name": "REGISTRATION_FEE",
      "outputs": [
        {
          "name": "",
          "type": "uint256"
        }
      ],
      "payable": false,
      "stateMutability": "view",
      "type": "function"
    },
    {
      "inputs": [],
      "payable": false,
      "stateMutability": "nonpayable",
      "type": "constructor"
    },
    {
      "anonymous": false,
      "inputs": [
        {
          "indexed": false,
          "name": "flight",
          "type": "string"
        },
        {
          "indexed": false,
          "name": "timestamp",
          "type": "uint256"
        },
        {
          "indexed": false,
          "name": "status",
          "type": "uint8"
        },
        {
          "indexed": false,
          "name": "verified",
          "type": "bool"
        }
      ],
      "name": "FlightStatusInfo",
      "type": "event"
    },
    {
      "anonymous": false,
      "inputs": [
        {
          "indexed": false,
          "name": "index",
          "type": "uint8"
        },
        {
          "indexed": false,
          "name": "flight",
          "type": "string"
        },
        {
          "indexed": false,
          "name": "timestamp",
          "type": "uint256"
        }
      ],
      "name": "OracleRequest",
      "type": "event"
    },
    {
      "constant": false,
      "inputs": [],
      "name": "registerOracle",
      "outputs": [],
      "payable": true,
      "stateMutability": "payable",
      "type": "function"
    },
    {
      "constant": true,
      "inputs": [
        {
          "name": "account",
          "type": "address"
        }
      ],
      "name": "getOracle",
      "outputs": [
        {
          "name": "",
          "type": "uint8[3]"
        }
      ],
      "payable": false,
      "stateMutability": "view",
      "type": "function"
    },
    {
      "constant": false,
      "inputs": [
        {
          "name": "flight",
          "type": "string"
        },
        {
          "name": "timestamp",
          "type": "uint256"
        }
      ],
      "name": "fetchFlightStatus",
      "outputs": [],
      "payable": false,
      "stateMutability": "nonpayable",
      "type": "function"
    },
    {
      "constant": false,
      "inputs": [
        {
          "name": "index",
          "type": "uint8"
        },
        {
          "name": "flight",
          "type": "string"
        },
        {
          "name": "timestamp",
          "type": "uint256"
        },
        {
          "name": "statusId",
          "type": "uint8"
        }
      ],
      "name": "submitOracleResponse",
      "outputs": [],
      "payable": false,
      "stateMutability": "nonpayable",
      "type": "function"
    },
    {
      "constant": true,
      "inputs": [
        {
          "name": "flight",
          "type": "string"
        },
        {
          "name": "timestamp",
          "type": "uint256"
        }
      ],
      "name": "viewFlightStatus",
      "outputs": [
        {
          "name": "",
          "type": "uint8"
        }
      ],
      "payable": false,
      "stateMutability": "view",
      "type": "function"
    }
  ],
  "bytecode": "0x608060405260008060146101000a81548160ff021916908360ff16021790555034801561002b57600080fd5b50336000806101000a81548173ffffffffffffffffffffffffffffffffffffffff021916908373ffffffffffffffffffffffffffffffffffffffff160217905550610fb98061007b6000396000f300608060405260043610610078576000357c0100000000000000000000000000000000000000000000000000000000900463ffffffff16806310d3d22e1461007d578063339d2590146100fc57806364b4f751146101065780637b91ce38146101315780638ec0268b14610176578063dc7044e1146101d5575b600080fd5b34801561008957600080fd5b506100be600480360381019080803573ffffffffffffffffffffffffffffffffffffffff169060200190929190505050610234565b6040518082600360200280838360005b838110156100e95780820151818401526020810190506100ce565b5050505090500191505060405180910390f35b6101046103a8565b005b34801561011257600080fd5b5061011b6104b3565b6040518082815260200191505060405180910390f35b34801561013d57600080fd5b50610174600480360381019080803590602001908201803590602001919091929391929390803590602001909291905050506104bf565b005b34801561018257600080fd5b506101d3600480360381019080803560ff16906020019092919080359060200190820180359060200191909192939192939080359060200190929190803560ff169060200190929190505050610643565b005b3480156101e157600080fd5b5061021860048036038101908080359060200190820180359060200191909192939192939080359060200190929190505050610a2d565b604051808260ff1660ff16815260200191505060405180910390f35b61023c610ea0565b6000809054906101000a900473ffffffffffffffffffffffffffffffffffffffff1673ffffffffffffffffffffffffffffffffffffffff163373ffffffffffffffffffffffffffffffffffffffff16141515610300576040517f08c379a000000000000000000000000000000000000000000000000000000000815260040180806020018281038252601c8152602001807f43616c6c6572206973206e6f7420636f6e7472616374206f776e65720000000081525060200191505060405180910390fd5b600160008373ffffffffffffffffffffffffffffffffffffffff1673ffffffffffffffffffffffffffffffffffffffff16815260200190815260200160002060038060200260405190810160405280929190826003801561039c576020028201916000905b82829054906101000a900460ff1660ff16815260200190600101906020826000010492830192600103820291508084116103655790505b50505050509050919050565b6103b0610ea0565b670de0b6b3a76400003410151515610456576040517f08c379a00000000000000000000000000000000000000000000000000000000081526004018080602001828103825260348152602001807f4d6573736167652076616c7565206973206c657373207468616e20726571756981526020017f72656420726567697374726174696f6e2066656500000000000000000000000081525060400191505060405180910390fd5b61045f33610b99565b905080600160003373ffffffffffffffffffffffffffffffffffffffff1673ffffffffffffffffffffffffffffffffffffffff1681526020019081526020016000209060036104af929190610ec3565b5050565b670de0b6b3a764000081565b6000806000915081858585604051602001808560ff1660ff167f010000000000000000000000000000000000000000000000000000000000000002815260010184848082843782019150508281526020019450505050506040516020818303038152906040526040518082805190602001908083835b60208310151561055a5780518252602082019150602081019050602083039250610535565b6001836020036101000a0380198251168184511680821785525050505050509050019150506040518091039020905060408051908101604052803373ffffffffffffffffffffffffffffffffffffffff1681526020016001151581525060026000836000191660001916815260200190815260200160002060008201518160000160006101000a81548173ffffffffffffffffffffffffffffffffffffffff021916908373ffffffffffffffffffffffffffffffffffffffff16021790555060208201518160000160146101000a81548160ff0219169083151502179055509050505050505050565b6000808660ff16600160003373ffffffffffffffffffffffffffffffffffffffff1673ffffffffffffffffffffffffffffffffffffffff168152602001908152602001600020600060038110151561069757fe5b602091828204019190069054906101000a900460ff1660ff16148061072357508660ff16600160003373ffffffffffffffffffffffffffffffffffffffff1673ffffffffffffffffffffffffffffffffffffffff168152602001908152602001600020600160038110151561070857fe5b602091828204019190069054906101000a900460ff1660ff16145b8061079557508660ff16600160003373ffffffffffffffffffffffffffffffffffffffff1673ffffffffffffffffffffffffffffffffffffffff168152602001908152602001600020600260038110151561077a57fe5b602091828204019190069054906101000a900460ff1660ff16145b151561082f576040517f08c379a00000000000000000000000000000000000000000000000000000000081526004018080602001828103825260238152602001807f496e64657820646f6573206e6f74206d61746368206f7261636c65207265717581526020017f657374000000000000000000000000000000000000000000000000000000000081525060400191505060405180910390fd5b6000600102915060026000836000191660001916815260200190815260200160002060010160008460ff1660ff1681526020019081526020016000203390806001815401808255809150509060018203906000526020600020016000909192909190916101000a81548173ffffffffffffffffffffffffffffffffffffffff021916908373ffffffffffffffffffffffffffffffffffffffff16021790555050600360026000846000191660001916815260200190815260200160002060010160008560ff1660ff16815260200190815260200160002080549050101515610a235785858560405160200180848480828437820191505082815260200193505050506040516020818303038152906040526040518082805190602001908083835b6020831015156109755780518252602082019150602081019050602083039250610950565b6001836020036101000a0380198251168184511680821785525050505050509050019150506040518091039020905060408051908101604052806001151581526020018460ff1681525060036000836000191660001916815260200190815260200160002060008201518160000160006101000a81548160ff02191690831515021790555060208201518160000160016101000a81548160ff021916908360ff160217905550905050610a24565b5b50505050505050565b60008060036000826000191660001916815260200190815260200160002060000160009054906101000a900460ff161515610ad0576040517f08c379a000000000000000000000000000000000000000000000000000000000815260040180806020018281038252601b8152602001807f466c6967687420737461747573206e6f7420617661696c61626c65000000000081525060200191505060405180910390fd5b84848460405160200180848480828437820191505082815260200193505050506040516020818303038152906040526040518082805190602001908083835b602083101515610b345780518252602082019150602081019050602083039250610b0f565b6001836020036101000a0380198251168184511680821785525050505050509050019150506040518091039020905060036000826000191660001916815260200190815260200160002060000160019054906101000a900460ff169150509392505050565b610ba1610ea0565b610ba9610ea0565b610bb283610d3f565b816000600381101515610bc157fe5b602002019060ff16908160ff1681525050806000600381101515610be157fe5b6020020151816001600381101515610bf557fe5b602002019060ff16908160ff16815250505b806000600381101515610c1657fe5b602002015160ff16816001600381101515610c2d57fe5b602002015160ff161415610c6957610c4483610d3f565b816001600381101515610c5357fe5b602002019060ff16908160ff1681525050610c07565b806001600381101515610c7857fe5b6020020151816002600381101515610c8c57fe5b602002019060ff16908160ff16815250505b806000600381101515610cad57fe5b602002015160ff16816002600381101515610cc457fe5b602002015160ff161480610d035750806001600381101515610ce257fe5b602002015160ff16816002600381101515610cf957fe5b602002015160ff16145b15610d3657610d1183610d3f565b816002600381101515610d2057fe5b602002019060ff16908160ff1681525050610c9e565b80915050919050565b6000806000600a91508160ff166000601481819054906101000a900460ff168092919060010191906101000a81548160ff021916908360ff16021790555060ff16430340856040516020018083600019166000191681526020018273ffffffffffffffffffffffffffffffffffffffff1673ffffffffffffffffffffffffffffffffffffffff166c01000000000000000000000000028152601401925050506040516020818303038152906040526040518082805190602001908083835b602083101515610e225780518252602082019150602081019050602083039250610dfd565b6001836020036101000a038019825116818451168082178552505050505050905001915050604051809103902060019004811515610e5c57fe5b06905060fa600060149054906101000a900460ff1660ff161115610e965760008060146101000a81548160ff021916908360ff1602179055505b8092505050919050565b606060405190810160405280600390602082028038833980820191505090505090565b826003601f01602090048101928215610f4c5791602002820160005b83821115610f1d57835183826101000a81548160ff021916908360ff1602179055509260200192600101602081600001049283019260010302610edf565b8015610f4a5782816101000a81549060ff0219169055600101602081600001049283019260010302610f1d565b505b509050610f599190610f5d565b5090565b610f8a91905b80821115610f8657600081816101000a81549060ff021916905550600101610f63565b5090565b905600a165627a7a72305820bc344ff53939fa83fb8ba003527fecd1e9d59cdd0ba306e26b4a174ef58120fe0029",
  "source": "pragma solidity ^0.4.25;\n\n// It's important to avoid vulnerabilities due to numeric overflow bugs\n// OpenZeppelin's SafeMath library, when used correctly, protects agains such bugs\n// More info: https://www.nccgroup.trust/us/about-us/newsroom-and-events/blog/2018/november/smart-contract-insecurity-bad-arithmetic/\n\nimport \"../../node_modules/openzeppelin-solidity/contracts/math/SafeMath.sol\";\n\ncontract ExerciseC6D {\n    using SafeMath for uint256; // Allow SafeMath functions to be called for all uint256 types (similar to \"prototype\" in Javascript)\n\n    address private contractOwner; // Account used to deploy contract\n\n    // Incremented to add pseudo-randomness at various points\n    uint8 private nonce = 0;\n\n    // Fee to be paid when registering oracle\n    uint256 public constant REGISTRATION_FEE = 1 ether;\n\n    // Number of oracles that must respond for valid status\n    uint256 private constant MIN_RESPONSES = 3;\n\n    // Status codes returned by oracles\n    uint8 private constant ON_TIME = 10;\n    uint8 private constant NOT_ON_TIME = 99;\n\n    // Track all registered oracles\n    mapping(address => uint8[3]) private oracles;\n\n    // Model for responses from oracles\n    struct ResponseInfo {\n        address requester; // Account that requested status\n        bool isOpen; // If open, oracle responses are accepted\n        mapping(uint8 => address[]) responses; // Mapping key is the status code reported\n        // This lets us group responses and identify\n        // the response that majority of the oracles\n        // submit\n    }\n\n    // Track all oracle responses\n    // Key = hash(index, flight, timestamp)\n    mapping(bytes32 => ResponseInfo) private oracleResponses;\n\n    // Event fired each time an oracle submits a response\n    event FlightStatusInfo(\n        string flight,\n        uint256 timestamp,\n        uint8 status,\n        bool verified\n    );\n\n    // Flight data persisted forever\n    struct FlightStatus {\n        bool hasStatus;\n        uint8 status;\n    }\n    mapping(bytes32 => FlightStatus) flights;\n\n    constructor() public {\n        contractOwner = msg.sender;\n    }\n\n    /********************************************************************************************/\n    /*                                       FUNCTION MODIFIERS                                 */\n    /********************************************************************************************/\n\n    modifier requireContractOwner() {\n        require(msg.sender == contractOwner, \"Caller is not contract owner\");\n        _;\n    }\n\n    /********************************************************************************************/\n    /*                                     SMART CONTRACT FUNCTIONS                             */\n    /********************************************************************************************/\n\n    /*********************************** BEGIN: Oracle Registration ***********************************/\n\n    // STAGE ONE: ORACLES REGISTER WITH THE SMART CONTRACT\n\n    // Register an oracle with the contract\n    function registerOracle() external payable {\n        // CODE EXERCISE 1: Require registration fee\n        require(\n            msg.value >= REGISTRATION_FEE,\n            \"Message value is less than required registration fee\"\n        );\n        // CODE EXERCISE 1: Generate three random indexes (range 0-9) using generateIndexes for the calling oracle\n        uint8[3] memory indexes = generateIndexes(msg.sender);\n        // CODE EXERCISE 1: Assign the indexes to the oracle and save to the contract state\n        oracles[msg.sender] = indexes;\n    }\n\n    function getOracle(\n        address account\n    ) external view requireContractOwner returns (uint8[3]) {\n        return oracles[account];\n    }\n\n    /************************************ END: Oracle Registration ************************************/\n\n    /************************************ BEGIN: Oracle Data Request ************************************/\n\n    // STAGE TWO: ORACLES ARE RANDOMLY CHOSEN TO FETCH INFORMATION\n\n    // Event fired when flight status request is submitted\n    // Oracles track this and if they have a matching index\n    // they fetch data and submit a response\n    event OracleRequest(uint8 index, string flight, uint256 timestamp);\n\n    // Generate a request\n    function fetchFlightStatus(string flight, uint256 timestamp) external {\n        // Generate a number between 0 - 9 to determine which oracles may respond\n\n        // CODE EXERCISE 2: Replace the hard-coded value of index with a random index based on the calling account\n        uint8 index = 0; /* Replace code here */\n\n        // Generate a unique key for storing the request\n        bytes32 key = keccak256(abi.encodePacked(index, flight, timestamp));\n        oracleResponses[key] = ResponseInfo({\n            requester: msg.sender,\n            isOpen: true\n        });\n\n        // CODE EXERCISE 2: Notify oracles that match the index value that they need to fetch flight status\n        /* Enter code here */\n    }\n\n    /************************************ END: Oracle Data Request ************************************/\n\n    /*********************************** BEGIN: Oracle Callback ***********************************/\n\n    // STAGE THREE: ORACLES SUBMIT INFORMATION\n\n    // Called by oracle when a response is available to an outstanding request\n    // For the response to be accepted, there must be a pending request that is open\n    // and matches one of the three Indexes randomly assigned to the oracle at the\n    // time of registration (i.e. uninvited oracles are not welcome)\n    function submitOracleResponse(\n        uint8 index,\n        string flight,\n        uint256 timestamp,\n        uint8 statusId\n    ) external {\n        require(\n            (oracles[msg.sender][0] == index) ||\n                (oracles[msg.sender][1] == index) ||\n                (oracles[msg.sender][2] == index),\n            \"Index does not match oracle request\"\n        );\n\n        // CODE EXERCISE 3: Require that the response is being submitted for a request that is still open\n        bytes32 key = 0; /* Replace 0 with code to generate a key using index, flight and timestamp */\n\n        oracleResponses[key].responses[statusId].push(msg.sender);\n\n        // Information isn't considered verified until at least MIN_RESPONSES\n        // oracles respond with the *** same *** information\n        if (oracleResponses[key].responses[statusId].length >= MIN_RESPONSES) {\n            // CODE EXERCISE 3: Prevent any more responses since MIN_RESPONSE threshold has been reached\n            /* Enter code here */\n\n            // CODE EXERCISE 3: Announce to the world that verified flight status information is available\n            /* Enter code here */\n\n            // Save the flight information for posterity\n            bytes32 flightKey = keccak256(abi.encodePacked(flight, timestamp));\n            flights[flightKey] = FlightStatus(true, statusId);\n        } else {\n            // Oracle submitting response but MIN_RESPONSES threshold not yet reached\n            // CODE EXERCISE 3: Announce to the world that verified flight status information is available\n            /* Enter code here */\n        }\n    }\n\n    /************************************ END: Oracle Callback ************************************/\n\n    /************************************ BEGIN: Utility Functions ************************************/\n\n    // Query the status of any flight\n    function viewFlightStatus(\n        string flight,\n        uint256 timestamp\n    ) external view returns (uint8) {\n        require(flights[flightKey].hasStatus, \"Flight status not available\");\n\n        bytes32 flightKey = keccak256(abi.encodePacked(flight, timestamp));\n        return flights[flightKey].status;\n    }\n\n    // Returns array of three non-duplicating integers from 0-9\n    function generateIndexes(address account) internal returns (uint8[3]) {\n        uint8[3] memory indexes;\n        indexes[0] = getRandomIndex(account);\n\n        indexes[1] = indexes[0];\n        while (indexes[1] == indexes[0]) {\n            indexes[1] = getRandomIndex(account);\n        }\n\n        indexes[2] = indexes[1];\n        while ((indexes[2] == indexes[0]) || (indexes[2] == indexes[1])) {\n            indexes[2] = getRandomIndex(account);\n        }\n\n        return indexes;\n    }\n\n    // Returns array of three non-duplicating integers from 0-9\n    function getRandomIndex(address account) internal returns (uint8) {\n        uint8 maxValue = 10;\n\n        // Pseudo random number...the incrementing nonce adds variation\n        uint8 random = uint8(\n            uint256(\n                keccak256(\n                    abi.encodePacked(blockhash(block.number - nonce++), account)\n                )\n            ) % maxValue\n        );\n\n        if (nonce > 250) {\n            nonce = 0; // Can only fetch blockhashes for last 256 blocks so we adapt\n        }\n\n        return random;\n    }\n\n    /************************************ END: Utility Functions ************************************/\n}\n",
  "sourcePath": "/Users/antoniofurtado/Udacity-Blockchain-Nanodegree/antonio_solutions/BCND-C6-Exercises-Master/contracts/ExerciseC6D/ExerciseC6D.sol",
  "compiler": {
    "name": "solc",
    "version": "0.4.26+commit.4563c3fc.Emscripten.clang"
  },
  "schemaVersion": "2.0.3",
  "updatedAt": "2023-05-03T13:19:04.517Z"
}