{
  "contractName": "ExerciseC6A",
  "abi": [
    {
      "inputs": [],
      "payable": false,
      "stateMutability": "nonpayable",
      "type": "constructor"
    },
    {
      "constant": true,
      "inputs": [
        {
          "name": "account",
          "type": "address"
        }
      ],
      "name": "isUserRegistered",
      "outputs": [
        {
          "name": "",
          "type": "bool"
        }
      ],
      "payable": false,
      "stateMutability": "view",
      "type": "function"
    },
    {
      "constant": false,
      "inputs": [
        {
          "name": "mode",
          "type": "bool"
        }
      ],
      "name": "setContractStatus",
      "outputs": [],
      "payable": false,
      "stateMutability": "nonpayable",
      "type": "function"
    },
    {
      "constant": true,
      "inputs": [],
      "name": "isOperational",
      "outputs": [
        {
          "name": "",
          "type": "bool"
        }
      ],
      "payable": false,
      "stateMutability": "view",
      "type": "function"
    },
    {
      "constant": false,
      "inputs": [
        {
          "name": "account",
          "type": "address"
        },
        {
          "name": "isAdmin",
          "type": "bool"
        }
      ],
      "name": "registerUser",
      "outputs": [],
      "payable": false,
      "stateMutability": "nonpayable",
      "type": "function"
    }
  ],
  "bytecode": "0x60806040526001600260006101000a81548160ff021916908315150217905550600060405190808252806020026020018201604052801561004f5781602001602082028038833980820191505090505b50600390805190602001906100659291906100b8565b5034801561007257600080fd5b50336000806101000a81548173ffffffffffffffffffffffffffffffffffffffff021916908373ffffffffffffffffffffffffffffffffffffffff160217905550610185565b828054828255906000526020600020908101928215610131579160200282015b828111156101305782518260006101000a81548173ffffffffffffffffffffffffffffffffffffffff021916908373ffffffffffffffffffffffffffffffffffffffff160217905550916020019190600101906100d8565b5b50905061013e9190610142565b5090565b61018291905b8082111561017e57600081816101000a81549073ffffffffffffffffffffffffffffffffffffffff021916905550600101610148565b5090565b90565b6109d8806101946000396000f300608060405260043610610062576000357c0100000000000000000000000000000000000000000000000000000000900463ffffffff168063163f75221461006757806388b8084f146100c2578063951faf00146100f1578063cd905dff14610140575b600080fd5b34801561007357600080fd5b506100a8600480360381019080803573ffffffffffffffffffffffffffffffffffffffff16906020019092919050505061016f565b604051808215151515815260200191505060405180910390f35b3480156100ce57600080fd5b506100ef600480360381019080803515159060200190929190505050610292565b005b3480156100fd57600080fd5b5061013e600480360381019080803573ffffffffffffffffffffffffffffffffffffffff16906020019092919080351515906020019092919050505061061b565b005b34801561014c57600080fd5b506101556108c8565b604051808215151515815260200191505060405180910390f35b60008073ffffffffffffffffffffffffffffffffffffffff168273ffffffffffffffffffffffffffffffffffffffff161415151561023b576040517f08c379a00000000000000000000000000000000000000000000000000000000081526004018080602001828103825260228152602001807f276163636f756e7427206d75737420626520612076616c69642061646472657381526020017f732e00000000000000000000000000000000000000000000000000000000000081525060400191505060405180910390fd5b600160008373ffffffffffffffffffffffffffffffffffffffff1673ffffffffffffffffffffffffffffffffffffffff16815260200190815260200160002060000160009054906101000a900460ff169050919050565b600080600260009054906101000a900460ff16151583151514151515610346576040517f08c379a000000000000000000000000000000000000000000000000000000000815260040180806020018281038252602d8152602001807f4e6577206d6f6465206d75737420626520646966666572656e742066726f6d2081526020017f6578697374696e67206d6f64650000000000000000000000000000000000000081525060400191505060405180910390fd5b600160003373ffffffffffffffffffffffffffffffffffffffff1673ffffffffffffffffffffffffffffffffffffffff16815260200190815260200160002060000160019054906101000a900460ff16151561040a576040517f08c379a00000000000000000000000000000000000000000000000000000000081526004018080602001828103825260168152602001807f43616c6c6572206973206e6f7420616e2041646d696e0000000000000000000081525060200191505060405180910390fd5b60009150600090505b6003805490508110156104a3573373ffffffffffffffffffffffffffffffffffffffff1660038281548110151561044657fe5b9060005260206000200160009054906101000a900473ffffffffffffffffffffffffffffffffffffffff1673ffffffffffffffffffffffffffffffffffffffff16141561049657600191506104a3565b8080600101915050610413565b8115151561053f576040517f08c379a00000000000000000000000000000000000000000000000000000000081526004018080602001828103825260278152602001807f43616c6c65722068617320616c72656164792063616c6c65642074686973206681526020017f756e6374696f6e0000000000000000000000000000000000000000000000000081525060400191505060405180910390fd5b60033390806001815401808255809150509060018203906000526020600020016000909192909190916101000a81548173ffffffffffffffffffffffffffffffffffffffff021916908373ffffffffffffffffffffffffffffffffffffffff1602179055505060026003805490501015156106165782600260006101000a81548160ff02191690831515021790555060006040519080825280602002602001820160405280156105fe5781602001602082028038833980820191505090505b50600390805190602001906106149291906108df565b505b505050565b6000809054906101000a900473ffffffffffffffffffffffffffffffffffffffff1673ffffffffffffffffffffffffffffffffffffffff163373ffffffffffffffffffffffffffffffffffffffff161415156106df576040517f08c379a000000000000000000000000000000000000000000000000000000000815260040180806020018281038252601c8152602001807f43616c6c6572206973206e6f7420636f6e7472616374206f776e65720000000081525060200191505060405180910390fd5b600260009054906101000a900460ff161515610763576040517f08c379a000000000000000000000000000000000000000000000000000000000815260040180806020018281038252601b8152602001807f436f6e7472616374206973206e6f74206f7065726174696f6e616c000000000081525060200191505060405180910390fd5b600160008373ffffffffffffffffffffffffffffffffffffffff1673ffffffffffffffffffffffffffffffffffffffff16815260200190815260200160002060000160009054906101000a900460ff16151515610828576040517f08c379a000000000000000000000000000000000000000000000000000000000815260040180806020018281038252601b8152602001807f5573657220697320616c726561647920726567697374657265642e000000000081525060200191505060405180910390fd5b6040805190810160405280600115158152602001821515815250600160008473ffffffffffffffffffffffffffffffffffffffff1673ffffffffffffffffffffffffffffffffffffffff16815260200190815260200160002060008201518160000160006101000a81548160ff02191690831515021790555060208201518160000160016101000a81548160ff0219169083151502179055509050505050565b6000600260009054906101000a900460ff16905090565b828054828255906000526020600020908101928215610958579160200282015b828111156109575782518260006101000a81548173ffffffffffffffffffffffffffffffffffffffff021916908373ffffffffffffffffffffffffffffffffffffffff160217905550916020019190600101906108ff565b5b5090506109659190610969565b5090565b6109a991905b808211156109a557600081816101000a81549073ffffffffffffffffffffffffffffffffffffffff02191690555060010161096f565b5090565b905600a165627a7a723058202878dd20e351e640656dbc96de9aaa41d81374261a3f863d519b01012f56d4db0029",
  "source": "pragma solidity ^0.4.25;\n\ncontract ExerciseC6A {\n    /********************************************************************************************/\n    /*                                       DATA VARIABLES                                     */\n    /********************************************************************************************/\n    uint constant M = 2;\n\n    struct UserProfile {\n        bool isRegistered;\n        bool isAdmin;\n    }\n\n    address private contractOwner; // Account used to deploy contract\n    mapping(address => UserProfile) userProfiles; // Mapping for storing user profiles\n    bool private operational = true;\n\n    address[] multiCalls = new address[](0);\n\n    /********************************************************************************************/\n    /*                                       EVENT DEFINITIONS                                  */\n    /********************************************************************************************/\n\n    // No events\n\n    /**\n     * @dev Constructor\n     *      The deploying account becomes contractOwner\n     */\n    constructor() public {\n        contractOwner = msg.sender;\n    }\n\n    /********************************************************************************************/\n    /*                                       FUNCTION MODIFIERS                                 */\n    /********************************************************************************************/\n\n    // Modifiers help avoid duplication of code. They are typically used to validate something\n    // before a function is allowed to be executed.\n\n    /**\n     * @dev Modifier that requires the \"ContractOwner\" account to be the function caller\n     */\n    modifier requireContractOwner() {\n        require(msg.sender == contractOwner, \"Caller is not contract owner\");\n        _;\n    }\n\n    modifier requireIsOperational() {\n        require(operational, \"Contract is not operational\");\n        _;\n    }\n\n    /********************************************************************************************/\n    /*                                       UTILITY FUNCTIONS                                  */\n    /********************************************************************************************/\n\n    /**\n     * @dev Check if a user is registered\n     *\n     * @return A bool that indicates if the user is registered\n     */\n    function isUserRegistered(address account) external view returns (bool) {\n        require(account != address(0), \"'account' must be a valid address.\");\n        return userProfiles[account].isRegistered;\n    }\n\n    function setContractStatus(bool mode) external {\n        require(\n            mode != operational,\n            \"New mode must be different from existing mode\"\n        );\n        require(userProfiles[msg.sender].isAdmin, \"Caller is not an Admin\");\n\n        // Note that here we are looping through an array. This is a potential serious drawback because if the array grows sufficintly long, you may\n        // reach the gas limit before reaching the end of the array when iterating and as a result the contract will be stuck before it can conclude\n        // the operation. This is a potential lockout scenario where the contract becomes unusable. It is better to have an external client repeatedly\n        // calling the function, so that the loop is performed by the calling program rather than within the smart contract.\n        bool isDuplicate = false;\n        for (uint c = 0; c < multiCalls.length; c++) {\n            if (multiCalls[c] == msg.sender) {\n                isDuplicate = true;\n                break;\n            }\n        }\n        require(!isDuplicate, \"Caller has already called this function\");\n\n        multiCalls.push(msg.sender);\n        if (multiCalls.length >= M) {\n            operational = mode;\n            multiCalls = new address[](0);\n        }\n    }\n\n    function isOperational() public view returns (bool) {\n        return operational;\n    }\n\n    /********************************************************************************************/\n    /*                                     SMART CONTRACT FUNCTIONS                             */\n    /********************************************************************************************/\n\n    function registerUser(\n        address account,\n        bool isAdmin\n    ) external requireContractOwner requireIsOperational {\n        require(\n            !userProfiles[account].isRegistered,\n            \"User is already registered.\"\n        );\n\n        userProfiles[account] = UserProfile({\n            isRegistered: true,\n            isAdmin: isAdmin\n        });\n    }\n}\n",
  "sourcePath": "/Users/antoniofurtado/Udacity-Blockchain-Nanodegree/antonio_solutions/BCND-C6-Exercises-Master/contracts/ExerciseC6A.sol",
  "compiler": {
    "name": "solc",
    "version": "0.4.26+commit.4563c3fc.Emscripten.clang"
  },
  "schemaVersion": "2.0.3",
  "updatedAt": "2023-05-03T13:19:04.516Z"
}